{
	"data": {
		"bytecode": {
			"linkReferences": {},
			"object": "608060405234801561000f575f80fd5b506109e68061001d5f395ff3fe608060405260043610610028575f3560e01c80630b66f3f51461002c578063ab883d2814610048575b5f80fd5b61004660048036038101906100419190610556565b610064565b005b610062600480360381019061005d91906105e7565b610276565b005b5f73ffffffffffffffffffffffffffffffffffffffff168573ffffffffffffffffffffffffffffffffffffffff16036100a8576100a384848484610276565b61026f565b8181905084849050146100f0576040517f08c379a00000000000000000000000000000000000000000000000000000000081526004016100e7906106bf565b60405180910390fd5b5f8590505f805b8686905081101561023257848482818110610115576101146106dd565b5b90506020020135826101279190610740565b91508273ffffffffffffffffffffffffffffffffffffffff166323b872dd33898985818110610159576101586106dd565b5b905060200201602081019061016e9190610773565b888886818110610181576101806106dd565b5b905060200201356040518463ffffffff1660e01b81526004016101a6939291906107bc565b6020604051808303815f875af11580156101c2573d5f803e3d5ffd5b505050506040513d601f19601f820116820180604052508101906101e69190610826565b610225576040517f08c379a000000000000000000000000000000000000000000000000000000000815260040161021c9061089b565b60405180910390fd5b80806001019150506100f7565b507fefd612a8feaf1dc2e16085988a20e3cc83dfe86c2d8e0fb47e3652ee2a8fa8eb87826040516102649291906108b9565b60405180910390a150505b5050505050565b8181905084849050146102be576040517f08c379a00000000000000000000000000000000000000000000000000000000081526004016102b5906106bf565b60405180910390fd5b5f805f90505b858590508110156103bb578383828181106102e2576102e16106dd565b5b90506020020135826102f49190610740565b91505f86868381811061030a576103096106dd565b5b905060200201602081019061031f9190610773565b73ffffffffffffffffffffffffffffffffffffffff166108fc86868581811061034b5761034a6106dd565b5b9050602002013590811502906040515f60405180830381858888f193505050509050806103ad576040517f08c379a00000000000000000000000000000000000000000000000000000000081526004016103a49061092a565b60405180910390fd5b5080806001019150506102c4565b503481146103fe576040517f08c379a00000000000000000000000000000000000000000000000000000000081526004016103f590610992565b60405180910390fd5b7fefd612a8feaf1dc2e16085988a20e3cc83dfe86c2d8e0fb47e3652ee2a8fa8eb5f8260405161042f9291906108b9565b60405180910390a15050505050565b5f80fd5b5f80fd5b5f73ffffffffffffffffffffffffffffffffffffffff82169050919050565b5f61046f82610446565b9050919050565b61047f81610465565b8114610489575f80fd5b50565b5f8135905061049a81610476565b92915050565b5f80fd5b5f80fd5b5f80fd5b5f8083601f8401126104c1576104c06104a0565b5b8235905067ffffffffffffffff8111156104de576104dd6104a4565b5b6020830191508360208202830111156104fa576104f96104a8565b5b9250929050565b5f8083601f840112610516576105156104a0565b5b8235905067ffffffffffffffff811115610533576105326104a4565b5b60208301915083602082028301111561054f5761054e6104a8565b5b9250929050565b5f805f805f6060868803121561056f5761056e61043e565b5b5f61057c8882890161048c565b955050602086013567ffffffffffffffff81111561059d5761059c610442565b5b6105a9888289016104ac565b9450945050604086013567ffffffffffffffff8111156105cc576105cb610442565b5b6105d888828901610501565b92509250509295509295909350565b5f805f80604085870312156105ff576105fe61043e565b5b5f85013567ffffffffffffffff81111561061c5761061b610442565b5b610628878288016104ac565b9450945050602085013567ffffffffffffffff81111561064b5761064a610442565b5b61065787828801610501565b925092505092959194509250565b5f82825260208201905092915050565b7f56313a204c656e67746820496e636f6d70617469626c650000000000000000005f82015250565b5f6106a9601783610665565b91506106b482610675565b602082019050919050565b5f6020820190508181035f8301526106d68161069d565b9050919050565b7f4e487b71000000000000000000000000000000000000000000000000000000005f52603260045260245ffd5b5f819050919050565b7f4e487b71000000000000000000000000000000000000000000000000000000005f52601160045260245ffd5b5f61074a8261070a565b91506107558361070a565b925082820190508082111561076d5761076c610713565b5b92915050565b5f602082840312156107885761078761043e565b5b5f6107958482850161048c565b91505092915050565b6107a781610465565b82525050565b6107b68161070a565b82525050565b5f6060820190506107cf5f83018661079e565b6107dc602083018561079e565b6107e960408301846107ad565b949350505050565b5f8115159050919050565b610805816107f1565b811461080f575f80fd5b50565b5f81519050610820816107fc565b92915050565b5f6020828403121561083b5761083a61043e565b5b5f61084884828501610812565b91505092915050565b7f56313a20496e73756666696369650000000000000000000000000000000000005f82015250565b5f610885600e83610665565b915061089082610851565b602082019050919050565b5f6020820190508181035f8301526108b281610879565b9050919050565b5f6040820190506108cc5f83018561079e565b6108d960208301846107ad565b9392505050565b7f56313a20496e76616c69642041646472657373000000000000000000000000005f82015250565b5f610914601383610665565b915061091f826108e0565b602082019050919050565b5f6020820190508181035f83015261094181610908565b9050919050565b7f56313a2056616c756520496e636f6d70617469626c65000000000000000000005f82015250565b5f61097c601683610665565b915061098782610948565b602082019050919050565b5f6020820190508181035f8301526109a981610970565b905091905056fea26469706673582212201127e2a618a921ab2d5be8ce1b1b53d4177d46a061e4a36061c806c211d84b6d64736f6c63430008180033",
			"opcodes": "PUSH1 0x80 PUSH1 0x40 MSTORE CALLVALUE DUP1 ISZERO PUSH2 0xF JUMPI PUSH0 DUP1 REVERT JUMPDEST POP PUSH2 0x9E6 DUP1 PUSH2 0x1D PUSH0 CODECOPY PUSH0 RETURN INVALID PUSH1 0x80 PUSH1 0x40 MSTORE PUSH1 0x4 CALLDATASIZE LT PUSH2 0x28 JUMPI PUSH0 CALLDATALOAD PUSH1 0xE0 SHR DUP1 PUSH4 0xB66F3F5 EQ PUSH2 0x2C JUMPI DUP1 PUSH4 0xAB883D28 EQ PUSH2 0x48 JUMPI JUMPDEST PUSH0 DUP1 REVERT JUMPDEST PUSH2 0x46 PUSH1 0x4 DUP1 CALLDATASIZE SUB DUP2 ADD SWAP1 PUSH2 0x41 SWAP2 SWAP1 PUSH2 0x556 JUMP JUMPDEST PUSH2 0x64 JUMP JUMPDEST STOP JUMPDEST PUSH2 0x62 PUSH1 0x4 DUP1 CALLDATASIZE SUB DUP2 ADD SWAP1 PUSH2 0x5D SWAP2 SWAP1 PUSH2 0x5E7 JUMP JUMPDEST PUSH2 0x276 JUMP JUMPDEST STOP JUMPDEST PUSH0 PUSH20 0xFFFFFFFFFFFFFFFFFFFFFFFFFFFFFFFFFFFFFFFF AND DUP6 PUSH20 0xFFFFFFFFFFFFFFFFFFFFFFFFFFFFFFFFFFFFFFFF AND SUB PUSH2 0xA8 JUMPI PUSH2 0xA3 DUP5 DUP5 DUP5 DUP5 PUSH2 0x276 JUMP JUMPDEST PUSH2 0x26F JUMP JUMPDEST DUP2 DUP2 SWAP1 POP DUP5 DUP5 SWAP1 POP EQ PUSH2 0xF0 JUMPI PUSH1 0x40 MLOAD PUSH32 0x8C379A000000000000000000000000000000000000000000000000000000000 DUP2 MSTORE PUSH1 0x4 ADD PUSH2 0xE7 SWAP1 PUSH2 0x6BF JUMP JUMPDEST PUSH1 0x40 MLOAD DUP1 SWAP2 SUB SWAP1 REVERT JUMPDEST PUSH0 DUP6 SWAP1 POP PUSH0 DUP1 JUMPDEST DUP7 DUP7 SWAP1 POP DUP2 LT ISZERO PUSH2 0x232 JUMPI DUP5 DUP5 DUP3 DUP2 DUP2 LT PUSH2 0x115 JUMPI PUSH2 0x114 PUSH2 0x6DD JUMP JUMPDEST JUMPDEST SWAP1 POP PUSH1 0x20 MUL ADD CALLDATALOAD DUP3 PUSH2 0x127 SWAP2 SWAP1 PUSH2 0x740 JUMP JUMPDEST SWAP2 POP DUP3 PUSH20 0xFFFFFFFFFFFFFFFFFFFFFFFFFFFFFFFFFFFFFFFF AND PUSH4 0x23B872DD CALLER DUP10 DUP10 DUP6 DUP2 DUP2 LT PUSH2 0x159 JUMPI PUSH2 0x158 PUSH2 0x6DD JUMP JUMPDEST JUMPDEST SWAP1 POP PUSH1 0x20 MUL ADD PUSH1 0x20 DUP2 ADD SWAP1 PUSH2 0x16E SWAP2 SWAP1 PUSH2 0x773 JUMP JUMPDEST DUP9 DUP9 DUP7 DUP2 DUP2 LT PUSH2 0x181 JUMPI PUSH2 0x180 PUSH2 0x6DD JUMP JUMPDEST JUMPDEST SWAP1 POP PUSH1 0x20 MUL ADD CALLDATALOAD PUSH1 0x40 MLOAD DUP5 PUSH4 0xFFFFFFFF AND PUSH1 0xE0 SHL DUP2 MSTORE PUSH1 0x4 ADD PUSH2 0x1A6 SWAP4 SWAP3 SWAP2 SWAP1 PUSH2 0x7BC JUMP JUMPDEST PUSH1 0x20 PUSH1 0x40 MLOAD DUP1 DUP4 SUB DUP2 PUSH0 DUP8 GAS CALL ISZERO DUP1 ISZERO PUSH2 0x1C2 JUMPI RETURNDATASIZE PUSH0 DUP1 RETURNDATACOPY RETURNDATASIZE PUSH0 REVERT JUMPDEST POP POP POP POP PUSH1 0x40 MLOAD RETURNDATASIZE PUSH1 0x1F NOT PUSH1 0x1F DUP3 ADD AND DUP3 ADD DUP1 PUSH1 0x40 MSTORE POP DUP2 ADD SWAP1 PUSH2 0x1E6 SWAP2 SWAP1 PUSH2 0x826 JUMP JUMPDEST PUSH2 0x225 JUMPI PUSH1 0x40 MLOAD PUSH32 0x8C379A000000000000000000000000000000000000000000000000000000000 DUP2 MSTORE PUSH1 0x4 ADD PUSH2 0x21C SWAP1 PUSH2 0x89B JUMP JUMPDEST PUSH1 0x40 MLOAD DUP1 SWAP2 SUB SWAP1 REVERT JUMPDEST DUP1 DUP1 PUSH1 0x1 ADD SWAP2 POP POP PUSH2 0xF7 JUMP JUMPDEST POP PUSH32 0xEFD612A8FEAF1DC2E16085988A20E3CC83DFE86C2D8E0FB47E3652EE2A8FA8EB DUP8 DUP3 PUSH1 0x40 MLOAD PUSH2 0x264 SWAP3 SWAP2 SWAP1 PUSH2 0x8B9 JUMP JUMPDEST PUSH1 0x40 MLOAD DUP1 SWAP2 SUB SWAP1 LOG1 POP POP JUMPDEST POP POP POP POP POP JUMP JUMPDEST DUP2 DUP2 SWAP1 POP DUP5 DUP5 SWAP1 POP EQ PUSH2 0x2BE JUMPI PUSH1 0x40 MLOAD PUSH32 0x8C379A000000000000000000000000000000000000000000000000000000000 DUP2 MSTORE PUSH1 0x4 ADD PUSH2 0x2B5 SWAP1 PUSH2 0x6BF JUMP JUMPDEST PUSH1 0x40 MLOAD DUP1 SWAP2 SUB SWAP1 REVERT JUMPDEST PUSH0 DUP1 PUSH0 SWAP1 POP JUMPDEST DUP6 DUP6 SWAP1 POP DUP2 LT ISZERO PUSH2 0x3BB JUMPI DUP4 DUP4 DUP3 DUP2 DUP2 LT PUSH2 0x2E2 JUMPI PUSH2 0x2E1 PUSH2 0x6DD JUMP JUMPDEST JUMPDEST SWAP1 POP PUSH1 0x20 MUL ADD CALLDATALOAD DUP3 PUSH2 0x2F4 SWAP2 SWAP1 PUSH2 0x740 JUMP JUMPDEST SWAP2 POP PUSH0 DUP7 DUP7 DUP4 DUP2 DUP2 LT PUSH2 0x30A JUMPI PUSH2 0x309 PUSH2 0x6DD JUMP JUMPDEST JUMPDEST SWAP1 POP PUSH1 0x20 MUL ADD PUSH1 0x20 DUP2 ADD SWAP1 PUSH2 0x31F SWAP2 SWAP1 PUSH2 0x773 JUMP JUMPDEST PUSH20 0xFFFFFFFFFFFFFFFFFFFFFFFFFFFFFFFFFFFFFFFF AND PUSH2 0x8FC DUP7 DUP7 DUP6 DUP2 DUP2 LT PUSH2 0x34B JUMPI PUSH2 0x34A PUSH2 0x6DD JUMP JUMPDEST JUMPDEST SWAP1 POP PUSH1 0x20 MUL ADD CALLDATALOAD SWAP1 DUP2 ISZERO MUL SWAP1 PUSH1 0x40 MLOAD PUSH0 PUSH1 0x40 MLOAD DUP1 DUP4 SUB DUP2 DUP6 DUP9 DUP9 CALL SWAP4 POP POP POP POP SWAP1 POP DUP1 PUSH2 0x3AD JUMPI PUSH1 0x40 MLOAD PUSH32 0x8C379A000000000000000000000000000000000000000000000000000000000 DUP2 MSTORE PUSH1 0x4 ADD PUSH2 0x3A4 SWAP1 PUSH2 0x92A JUMP JUMPDEST PUSH1 0x40 MLOAD DUP1 SWAP2 SUB SWAP1 REVERT JUMPDEST POP DUP1 DUP1 PUSH1 0x1 ADD SWAP2 POP POP PUSH2 0x2C4 JUMP JUMPDEST POP CALLVALUE DUP2 EQ PUSH2 0x3FE JUMPI PUSH1 0x40 MLOAD PUSH32 0x8C379A000000000000000000000000000000000000000000000000000000000 DUP2 MSTORE PUSH1 0x4 ADD PUSH2 0x3F5 SWAP1 PUSH2 0x992 JUMP JUMPDEST PUSH1 0x40 MLOAD DUP1 SWAP2 SUB SWAP1 REVERT JUMPDEST PUSH32 0xEFD612A8FEAF1DC2E16085988A20E3CC83DFE86C2D8E0FB47E3652EE2A8FA8EB PUSH0 DUP3 PUSH1 0x40 MLOAD PUSH2 0x42F SWAP3 SWAP2 SWAP1 PUSH2 0x8B9 JUMP JUMPDEST PUSH1 0x40 MLOAD DUP1 SWAP2 SUB SWAP1 LOG1 POP POP POP POP POP JUMP JUMPDEST PUSH0 DUP1 REVERT JUMPDEST PUSH0 DUP1 REVERT JUMPDEST PUSH0 PUSH20 0xFFFFFFFFFFFFFFFFFFFFFFFFFFFFFFFFFFFFFFFF DUP3 AND SWAP1 POP SWAP2 SWAP1 POP JUMP JUMPDEST PUSH0 PUSH2 0x46F DUP3 PUSH2 0x446 JUMP JUMPDEST SWAP1 POP SWAP2 SWAP1 POP JUMP JUMPDEST PUSH2 0x47F DUP2 PUSH2 0x465 JUMP JUMPDEST DUP2 EQ PUSH2 0x489 JUMPI PUSH0 DUP1 REVERT JUMPDEST POP JUMP JUMPDEST PUSH0 DUP2 CALLDATALOAD SWAP1 POP PUSH2 0x49A DUP2 PUSH2 0x476 JUMP JUMPDEST SWAP3 SWAP2 POP POP JUMP JUMPDEST PUSH0 DUP1 REVERT JUMPDEST PUSH0 DUP1 REVERT JUMPDEST PUSH0 DUP1 REVERT JUMPDEST PUSH0 DUP1 DUP4 PUSH1 0x1F DUP5 ADD SLT PUSH2 0x4C1 JUMPI PUSH2 0x4C0 PUSH2 0x4A0 JUMP JUMPDEST JUMPDEST DUP3 CALLDATALOAD SWAP1 POP PUSH8 0xFFFFFFFFFFFFFFFF DUP2 GT ISZERO PUSH2 0x4DE JUMPI PUSH2 0x4DD PUSH2 0x4A4 JUMP JUMPDEST JUMPDEST PUSH1 0x20 DUP4 ADD SWAP2 POP DUP4 PUSH1 0x20 DUP3 MUL DUP4 ADD GT ISZERO PUSH2 0x4FA JUMPI PUSH2 0x4F9 PUSH2 0x4A8 JUMP JUMPDEST JUMPDEST SWAP3 POP SWAP3 SWAP1 POP JUMP JUMPDEST PUSH0 DUP1 DUP4 PUSH1 0x1F DUP5 ADD SLT PUSH2 0x516 JUMPI PUSH2 0x515 PUSH2 0x4A0 JUMP JUMPDEST JUMPDEST DUP3 CALLDATALOAD SWAP1 POP PUSH8 0xFFFFFFFFFFFFFFFF DUP2 GT ISZERO PUSH2 0x533 JUMPI PUSH2 0x532 PUSH2 0x4A4 JUMP JUMPDEST JUMPDEST PUSH1 0x20 DUP4 ADD SWAP2 POP DUP4 PUSH1 0x20 DUP3 MUL DUP4 ADD GT ISZERO PUSH2 0x54F JUMPI PUSH2 0x54E PUSH2 0x4A8 JUMP JUMPDEST JUMPDEST SWAP3 POP SWAP3 SWAP1 POP JUMP JUMPDEST PUSH0 DUP1 PUSH0 DUP1 PUSH0 PUSH1 0x60 DUP7 DUP9 SUB SLT ISZERO PUSH2 0x56F JUMPI PUSH2 0x56E PUSH2 0x43E JUMP JUMPDEST JUMPDEST PUSH0 PUSH2 0x57C DUP9 DUP3 DUP10 ADD PUSH2 0x48C JUMP JUMPDEST SWAP6 POP POP PUSH1 0x20 DUP7 ADD CALLDATALOAD PUSH8 0xFFFFFFFFFFFFFFFF DUP2 GT ISZERO PUSH2 0x59D JUMPI PUSH2 0x59C PUSH2 0x442 JUMP JUMPDEST JUMPDEST PUSH2 0x5A9 DUP9 DUP3 DUP10 ADD PUSH2 0x4AC JUMP JUMPDEST SWAP5 POP SWAP5 POP POP PUSH1 0x40 DUP7 ADD CALLDATALOAD PUSH8 0xFFFFFFFFFFFFFFFF DUP2 GT ISZERO PUSH2 0x5CC JUMPI PUSH2 0x5CB PUSH2 0x442 JUMP JUMPDEST JUMPDEST PUSH2 0x5D8 DUP9 DUP3 DUP10 ADD PUSH2 0x501 JUMP JUMPDEST SWAP3 POP SWAP3 POP POP SWAP3 SWAP6 POP SWAP3 SWAP6 SWAP1 SWAP4 POP JUMP JUMPDEST PUSH0 DUP1 PUSH0 DUP1 PUSH1 0x40 DUP6 DUP8 SUB SLT ISZERO PUSH2 0x5FF JUMPI PUSH2 0x5FE PUSH2 0x43E JUMP JUMPDEST JUMPDEST PUSH0 DUP6 ADD CALLDATALOAD PUSH8 0xFFFFFFFFFFFFFFFF DUP2 GT ISZERO PUSH2 0x61C JUMPI PUSH2 0x61B PUSH2 0x442 JUMP JUMPDEST JUMPDEST PUSH2 0x628 DUP8 DUP3 DUP9 ADD PUSH2 0x4AC JUMP JUMPDEST SWAP5 POP SWAP5 POP POP PUSH1 0x20 DUP6 ADD CALLDATALOAD PUSH8 0xFFFFFFFFFFFFFFFF DUP2 GT ISZERO PUSH2 0x64B JUMPI PUSH2 0x64A PUSH2 0x442 JUMP JUMPDEST JUMPDEST PUSH2 0x657 DUP8 DUP3 DUP9 ADD PUSH2 0x501 JUMP JUMPDEST SWAP3 POP SWAP3 POP POP SWAP3 SWAP6 SWAP2 SWAP5 POP SWAP3 POP JUMP JUMPDEST PUSH0 DUP3 DUP3 MSTORE PUSH1 0x20 DUP3 ADD SWAP1 POP SWAP3 SWAP2 POP POP JUMP JUMPDEST PUSH32 0x56313A204C656E67746820496E636F6D70617469626C65000000000000000000 PUSH0 DUP3 ADD MSTORE POP JUMP JUMPDEST PUSH0 PUSH2 0x6A9 PUSH1 0x17 DUP4 PUSH2 0x665 JUMP JUMPDEST SWAP2 POP PUSH2 0x6B4 DUP3 PUSH2 0x675 JUMP JUMPDEST PUSH1 0x20 DUP3 ADD SWAP1 POP SWAP2 SWAP1 POP JUMP JUMPDEST PUSH0 PUSH1 0x20 DUP3 ADD SWAP1 POP DUP2 DUP2 SUB PUSH0 DUP4 ADD MSTORE PUSH2 0x6D6 DUP2 PUSH2 0x69D JUMP JUMPDEST SWAP1 POP SWAP2 SWAP1 POP JUMP JUMPDEST PUSH32 0x4E487B7100000000000000000000000000000000000000000000000000000000 PUSH0 MSTORE PUSH1 0x32 PUSH1 0x4 MSTORE PUSH1 0x24 PUSH0 REVERT JUMPDEST PUSH0 DUP2 SWAP1 POP SWAP2 SWAP1 POP JUMP JUMPDEST PUSH32 0x4E487B7100000000000000000000000000000000000000000000000000000000 PUSH0 MSTORE PUSH1 0x11 PUSH1 0x4 MSTORE PUSH1 0x24 PUSH0 REVERT JUMPDEST PUSH0 PUSH2 0x74A DUP3 PUSH2 0x70A JUMP JUMPDEST SWAP2 POP PUSH2 0x755 DUP4 PUSH2 0x70A JUMP JUMPDEST SWAP3 POP DUP3 DUP3 ADD SWAP1 POP DUP1 DUP3 GT ISZERO PUSH2 0x76D JUMPI PUSH2 0x76C PUSH2 0x713 JUMP JUMPDEST JUMPDEST SWAP3 SWAP2 POP POP JUMP JUMPDEST PUSH0 PUSH1 0x20 DUP3 DUP5 SUB SLT ISZERO PUSH2 0x788 JUMPI PUSH2 0x787 PUSH2 0x43E JUMP JUMPDEST JUMPDEST PUSH0 PUSH2 0x795 DUP5 DUP3 DUP6 ADD PUSH2 0x48C JUMP JUMPDEST SWAP2 POP POP SWAP3 SWAP2 POP POP JUMP JUMPDEST PUSH2 0x7A7 DUP2 PUSH2 0x465 JUMP JUMPDEST DUP3 MSTORE POP POP JUMP JUMPDEST PUSH2 0x7B6 DUP2 PUSH2 0x70A JUMP JUMPDEST DUP3 MSTORE POP POP JUMP JUMPDEST PUSH0 PUSH1 0x60 DUP3 ADD SWAP1 POP PUSH2 0x7CF PUSH0 DUP4 ADD DUP7 PUSH2 0x79E JUMP JUMPDEST PUSH2 0x7DC PUSH1 0x20 DUP4 ADD DUP6 PUSH2 0x79E JUMP JUMPDEST PUSH2 0x7E9 PUSH1 0x40 DUP4 ADD DUP5 PUSH2 0x7AD JUMP JUMPDEST SWAP5 SWAP4 POP POP POP POP JUMP JUMPDEST PUSH0 DUP2 ISZERO ISZERO SWAP1 POP SWAP2 SWAP1 POP JUMP JUMPDEST PUSH2 0x805 DUP2 PUSH2 0x7F1 JUMP JUMPDEST DUP2 EQ PUSH2 0x80F JUMPI PUSH0 DUP1 REVERT JUMPDEST POP JUMP JUMPDEST PUSH0 DUP2 MLOAD SWAP1 POP PUSH2 0x820 DUP2 PUSH2 0x7FC JUMP JUMPDEST SWAP3 SWAP2 POP POP JUMP JUMPDEST PUSH0 PUSH1 0x20 DUP3 DUP5 SUB SLT ISZERO PUSH2 0x83B JUMPI PUSH2 0x83A PUSH2 0x43E JUMP JUMPDEST JUMPDEST PUSH0 PUSH2 0x848 DUP5 DUP3 DUP6 ADD PUSH2 0x812 JUMP JUMPDEST SWAP2 POP POP SWAP3 SWAP2 POP POP JUMP JUMPDEST PUSH32 0x56313A20496E7375666669636965000000000000000000000000000000000000 PUSH0 DUP3 ADD MSTORE POP JUMP JUMPDEST PUSH0 PUSH2 0x885 PUSH1 0xE DUP4 PUSH2 0x665 JUMP JUMPDEST SWAP2 POP PUSH2 0x890 DUP3 PUSH2 0x851 JUMP JUMPDEST PUSH1 0x20 DUP3 ADD SWAP1 POP SWAP2 SWAP1 POP JUMP JUMPDEST PUSH0 PUSH1 0x20 DUP3 ADD SWAP1 POP DUP2 DUP2 SUB PUSH0 DUP4 ADD MSTORE PUSH2 0x8B2 DUP2 PUSH2 0x879 JUMP JUMPDEST SWAP1 POP SWAP2 SWAP1 POP JUMP JUMPDEST PUSH0 PUSH1 0x40 DUP3 ADD SWAP1 POP PUSH2 0x8CC PUSH0 DUP4 ADD DUP6 PUSH2 0x79E JUMP JUMPDEST PUSH2 0x8D9 PUSH1 0x20 DUP4 ADD DUP5 PUSH2 0x7AD JUMP JUMPDEST SWAP4 SWAP3 POP POP POP JUMP JUMPDEST PUSH32 0x56313A20496E76616C6964204164647265737300000000000000000000000000 PUSH0 DUP3 ADD MSTORE POP JUMP JUMPDEST PUSH0 PUSH2 0x914 PUSH1 0x13 DUP4 PUSH2 0x665 JUMP JUMPDEST SWAP2 POP PUSH2 0x91F DUP3 PUSH2 0x8E0 JUMP JUMPDEST PUSH1 0x20 DUP3 ADD SWAP1 POP SWAP2 SWAP1 POP JUMP JUMPDEST PUSH0 PUSH1 0x20 DUP3 ADD SWAP1 POP DUP2 DUP2 SUB PUSH0 DUP4 ADD MSTORE PUSH2 0x941 DUP2 PUSH2 0x908 JUMP JUMPDEST SWAP1 POP SWAP2 SWAP1 POP JUMP JUMPDEST PUSH32 0x56313A2056616C756520496E636F6D70617469626C6500000000000000000000 PUSH0 DUP3 ADD MSTORE POP JUMP JUMPDEST PUSH0 PUSH2 0x97C PUSH1 0x16 DUP4 PUSH2 0x665 JUMP JUMPDEST SWAP2 POP PUSH2 0x987 DUP3 PUSH2 0x948 JUMP JUMPDEST PUSH1 0x20 DUP3 ADD SWAP1 POP SWAP2 SWAP1 POP JUMP JUMPDEST PUSH0 PUSH1 0x20 DUP3 ADD SWAP1 POP DUP2 DUP2 SUB PUSH0 DUP4 ADD MSTORE PUSH2 0x9A9 DUP2 PUSH2 0x970 JUMP JUMPDEST SWAP1 POP SWAP2 SWAP1 POP JUMP INVALID LOG2 PUSH5 0x6970667358 0x22 SLT KECCAK256 GT 0x27 0xE2 0xA6 XOR 0xA9 0x21 0xAB 0x2D JUMPDEST 0xE8 0xCE SHL SHL MSTORE8 0xD4 OR PUSH30 0x46A061E4A36061C806C211D84B6D64736F6C634300081800330000000000 "
		},
		"gasEstimates": {
			"creation": {
				"codeDepositCost": "506800",
				"executionCost": "541",
				"totalCost": "507341"
			},
			"external": {
				"multisendEther(address[],uint256[])": "2390",
				"multisendToken(address,address[],uint256[])": "infinite"
			}
		},
		"methodIdentifiers": {
			"multisendEther(address[],uint256[])": "ab883d28",
			"multisendToken(address,address[],uint256[])": "0b66f3f5"
		}
	},
	"abi": [
		{
			"anonymous": false,
			"inputs": [
				{
					"indexed": false,
					"internalType": "address",
					"name": "tokenAddress",
					"type": "address"
				},
				{
					"indexed": false,
					"internalType": "uint256",
					"name": "total",
					"type": "uint256"
				}
			],
			"name": "Multisend",
			"type": "event"
		},
		{
			"inputs": [
				{
					"internalType": "address[]",
					"name": "targets",
					"type": "address[]"
				},
				{
					"internalType": "uint256[]",
					"name": "amounts",
					"type": "uint256[]"
				}
			],
			"name": "multisendEther",
			"outputs": [],
			"stateMutability": "payable",
			"type": "function"
		},
		{
			"inputs": [
				{
					"internalType": "address",
					"name": "tokenAddress",
					"type": "address"
				},
				{
					"internalType": "address[]",
					"name": "targets",
					"type": "address[]"
				},
				{
					"internalType": "uint256[]",
					"name": "amounts",
					"type": "uint256[]"
				}
			],
			"name": "multisendToken",
			"outputs": [],
			"stateMutability": "payable",
			"type": "function"
		}
	]
}